:020000040000FA
:060000000A128A110E280D
:10000800FE00030EF1000408F2000A08F3000A12C9
:100018008A1149290A128A11112883133530FD00E3
:100028000230FE001E30FF002B3084000A128A11B5
:100038000F220A128A11B501B601B701F601F701BC
:10004800F801F90183010A128A11DB2983120313CB
:10005800A501A11F302831283828A009A109A00A24
:100068000319A10AA501A50AA31F3B283C28452876
:10007800A209A309A20A0319A30A0130F40074080B
:10008800A506A601A7012008210403194C284D281C
:100098008428A401A40A5B2801300310A00DA10D37
:1000A800FF3E031D51280130F4007408A407A11F66
:1000B8005E285F28502801300310A60DA70DFF3ECB
:1000C800031D602821082302031D6C282008220232
:1000D800031C6F28702877282008A2022108031C17
:1000E800A303A302261401300310A10CA00CFF3EA9
:1000F800031D78280130A402031D832884285F2863
:1001080025080319882889288E28A609A709A60A78
:100118000319A70A2708A1002608A00008006430D0
:1001280083120313A0000030A1007908A800A901D8
:100138002808A2002908A3000A128A112A200A12F4
:100148008A11831203132008AA002A08F8006430D1
:10015800A0000030A1007908A800A9012808A20081
:100168002908A3000A128A11EE200A128A118312A2
:1001780003132008AA002A08F6000A30A00000305D
:10018800A1007608A800A9012808A2002908A30050
:100198000A128A112A200A128A11831203132008CC
:1001A800AA002A08F7000A30A0000030A10076084B
:1001B800A800A9012808A2002908A3000A128A1188
:1001C800EE200A128A11831203132008AA002A08B3
:1001D800F600080083120313A501A31FF428F528CD
:1001E800FC28A209A309A20A0319A30AA501A50AC2
:1001F800A11FFF2800290529A009A109A00A0319A0
:10020800A10A2008210403190A290B293A29A40163
:10021800A40A192901300310A00DA10DFF3E031DEA
:100228000F290130F4007408A407A11F1C291D29F7
:100238000E2921082302031D232920082202031C5A
:10024800262927292D292008A2022108031CA303F7
:10025800A30201300310A10CA00CFF3E031D2E29A0
:100268000130A402031D39293A291D29250803193B
:100278003E293F294429A209A309A20A0319A30A6E
:100288002308A1002208A00008000B1D4C294D29B5
:100298009429831203130511051478082B3E840052
:1002A8008313000887000130B5000030B60035031D
:1002B8003604031D602961296C2905108514770807
:1002C8002B3E8400000887000230B5000030B600DD
:1002D800023035063604031D722973297C298510DE
:1002E800051576082B3E840000088700B501B60185
:1002F8000B11FF3081000C1F8229832994291F0CC0
:10030800F000700C0F39053A031D8B298C298F29B1
:100318001E08880093291E08F0007008F9000C13C5
:1003280073088A0072088400710E8300FE0E7E0E28
:1003380009006030831603178800890183160313A8
:100348008501870188010330890083120313850121
:10035800870188018901831603130F088F396038D4
:100368008F000F149F131F129F12831203131F086D
:100378003F3940389F001F08C33914389F001F14A5
:100388001030F400F40BC629000083160313811201
:100398008111011581140114831203130C138316A0
:1003A80003130C170B178B178B160B1108000A1267
:1003B8008A119D210A128A11831203139F14831232
:1003C80003139F18E829E929022A1F0CF500750C68
:1003D8000F39063A031DF129F229F7291F08C339F5
:1003E80014389F00FB291F08C33918389F00213093
:1003F800F500F50BFD29831203139F140A128A11C5
:1004080093200A128A11E3290A128A110E287E08FB
:100418008A007F0882000A128A110B220A128A11A6
:100428008000840A04087D0603190034FF0A0319B2
:10043800FE0A0F2A3F3406345B344F3466346D3479
:080448007D3407347F346F346A
:04400E00D420FF3F7C
:00000001FF
