:020000040000FA
:060000000A128A110C280F
:10000800FE00030EF1000A08F2000A128A11702895
:100018000A128A110F2883010A128A1146286030B1
:100028008316031788008901831603138701880143
:10003800033089008312031387018801890183161D
:1000480003130F088F3960388F000F149F131F1286
:100058009F12831203131F083F3940389F001F085F
:10006800C33914389F001F141030F300F30B3A28DB
:100078000000831203130C13831603130C170B17BA
:100088008B1708000A128A1113200A128A11831288
:1000980003139F149F18512852284E281F0CF40050
:1000A800740C0F39063A031D5A285B2860281F086C
:1000B800C33914389F0064281F08C33918389F00B3
:1000C8001030F400F40B66280000831203139F1409
:1000D8004E280A128A110C28831203130C1F752844
:1000E800762885281F0CF000700C0F39063A031D7E
:1000F8007E287F2882281E08870084281E088800FA
:100108000C1372088A00710E8300FE0E7E0E090021
:04400E00D420FF3F7C
:00000001FF
